S0140000546F7765724F6648616E6F692E737265635B
S11300000C946B000C9445030C9420040C9465042C
S11300100C9488000C9488000C9488000C9488003C
S11300200C9488000C9488000C9488000C9488002C
S11300300C9488000C9488000C9488000C9488001C
S11300400C9488000C9488000C9488000C9488000C
S11300500C94880007634236B79BD8A71A396856B0
S113006018AEBAAB558C1D3CB7CC5763BD6DEDFDD6
S1130070753EF6177231BF000000803F0800000093
S1130080BE922449123EABAAAA2ABECDCCCC4C3E89
S113009000000080BEABAAAAAA3E00000000BF0078
S11300A00000803F0000000000084178D3BB438774
S11300B0D1133D190E3CC3BD4282AD2B3E68EC8288
S11300C076BED98FE1A93E4C80EFFFBE01C4FF7F0D
S11300D03F000000000011241FBECFE5D8E0DEBFC2
S11300E0CDBF10E0A0E6B0E0E6E7F6E102C005907F
S11300F00D92AE3BB107D9F720E0AEEBB0E001C002
S11301001D92A03DB207E1F70E94D3050C94390B70
S11301100C9400000F931F93CF93DF938C0186E020
S113012090E00E940C0AEC01198308838FEF9FEF83
S11301309B838A83C801880F991F0E940C0A9D83A0
S11301408C83CE01DF91CF911F910F910895DC0133
S113015012962D913C9113978D919C911197019733
S11301602817390781F01496ED91FC9115972F5FAC
S11301703F4F13963C932E931297220F331FE20F97
S1130180F31F718360830895DC0112962D913C91D5
S113019013972F3F8FEF380781F01496ED91FC9160
S11301A01597C901019713969C938E931297220F6A
S11301B0331FE20FF31F20813181C9010895CF93CA
S11301C0DF93E1EBF0E083EA90E0C5E9D0E067E893
S11301D070E04DEB50E02191DC012D93CD0119929B
S11301E0DB011D92BD01E417F507A9F7DF91CF915B
S11301F00895E2EAF0E080E090E061E070E0482FEA
S11302002091C6003091C70021303105C9F42091F6
S11302106800309169008217930739F020916600D5
S1130220309167008217930759F49B01008002C044
S1130230220F331F0A94E2F7215020682BBB09C018
S11302409B01008002C0220F331F0A94E2F7215061
S11302502BBB45BB019631968E30910581F60895EE
S1130260E4E9F0E081E090E09C01008002C0220F0C
S1130270331F0A94E2F721502BBB2DE025BB9C01D0
S1130280018002C0220F331F0A94E2F721502BBBD6
S11302902EE025BB028002C0880F991F0A94E2F762
S11302A081508BBB8FE085BBE7E9F0E084E090E010
S11302B041E050E02091C6003091C7002230310562
S11302C089F49C01275031092230310558F49A01F0
S11302D0008002C0220F331F0A94E2F721502068E5
S11302E02BBB09C09A01008002C0220F331F0A945D
S11302F0E2F721502BBB2CE0280F25BB0196319649
S11303008F309105B9F60895E6E8F0E08AE141E01E
S113031050E09A01019002C0220F331F0A94E2F7C1
S113032021502BBB85BB8F5F803299F7ECE8F0E05E
S113033087E090E041E050E02091C6003091C70092
S11303402330310589F49C012750310922303105CD
S113035058F49A01008002C0220F331F0A94E2F776
S1130360215020682BBB09C09A01008002C0220FD3
S1130370331F0A94E2F721502BBB29E1280F25BB38
S1130380019631968F309105B9F6089548E750E00B
S113039066E870E0FA01AAEFBFEFA41BB50B8E2F3D
S11303A0841B2091C6003091C7002130310551F4DF
S11303B09D012E0F3F1F2230310520F4908190685B
S11303C09BBB02C090819BBB85BB3196E617F707A8
S11303D031F70895EAE6F0E08AE191919BBB85BB91
S11303E08F5F8032D1F7E0E7F0E087E090E0209182
S11303F0C6003091C7002330310551F49C012750C9
S113040031092230310520F4208120682BBB02C041
S113041020812BBB29E1280F25BB019631968F3013
S1130420910529F70895CF93DF93C0E0D0E00E94AF
S1130430F9000E9430010E9484012196C83E83E0A5
S1130440D807A9F7DF91CF910895CF93DF93C0E048
S1130450D0E00E94F9000E9430010E94840121969C
S1130460C83CD105B1F7DF91CF910895CF93DF93C5
S1130470C0E0D0E00E94C6010E94EA012196C83C77
S1130480D105C1F7DF91CF9108958130910509F528
S1130490141615060CF0CCC0209168003091690048
S11304A02F5F3F4FF901EE55FF4FA0916600B091C9
S11304B06700AE55BF4F241B350B2E553F4F82911D
S11304C0815080838C9181508D93E217F307B9F7A3
S11304D0B4C08230910509F5141615060CF0A8C0B5
S11304E020916800309169002F5F3F4FF901EC566D
S11304F0FF4FA0916600B0916700AC56BF4F241B1C
S1130500350B2C563F4F8291815080838C918150C2
S11305108D93E217F307B9F790C0039709F5141602
S113052015060CF085C020916800309169002F5F9A
S11305303F4FF901EA57FF4FA0916600B091670061
S1130540AA57BF4F241B350B2A573F4F8291815026
S113055080838C9181508D93E217F307B9F76DC0B6
S113056061307105F1F4141615060CF06BC0A091FE
S11305706800B0916900AD55BF4FE0916600F091FD
S11305806700EE55FF4F20E030E08E918F5F8C9333
S113059080818F5F81932F5F3F4F24173507ACF322
S11305A008956230710509F5141615060CF04AC059
S11305B020916800309169002F5F3F4FF901EC569C
S11305C0FF4FA0916600B0916700AC56BF4F241B4B
S11305D0350B2C563F4F82918F5F80838C918F5FB8
S11305E08D93E217F307B9F708956330710551F558
S11305F0141615063CF520916800309169002F5FB0
S11306003F4FF901EA57FF4FA0916600B091670090
S1130610AA57BF4F241B350B2A573F4F82918F5F38
S113062080838C918F5F8D93E217F307B9F7089558
S11306306130710509F0B5CF08956130710509F095
S1130640B0CF95CF0895FC0131813296AC01435F60
S11306505F4F2191321708F4322FE417F507C9F7D9
S1130660FC01319660E070E08191882321F0381319
S113067002C06F5F7F4FE417F507B1F7CB019923F1
S11306800CF401969595879508951F920F920FB6D5
S11306900F9211242F933F934F935F936F937F9304
S11306A08F939F93AF93BF93CF93DF93EF93FF9376
S11306B08091C2009091C300892BE9F00E94360218
S11306C08091C6009091C7008130910539F48FEF75
S11306D09FEF9093C9008093C80008C0039731F43A
S11306E081E090E09093C9008093C8001092C30009
S11306F01092C20092C00E9425028091CA0090917B
S1130700CB0001969093CB008093CA008230910570
S113071009F044C01092CB001092CA00C091C600E8
S1130720D091C700D093C500C093C400C130D10597
S113073081F482EA90E00E942303009709F460C0E8
S11307402091C0003091C100281739070CF458C01B
S113075064C0C230D10581F484E990E00E9423038F
S1130760009709F44DC02091C0003091C1002817B2
S113077039070CF445C051C0C330D10509F04DC050
S113078086E890E00E9423030097D1F12091C000F5
S11307903091C100281739079CF13FC0019759F5E2
S11307A08091C6009091C7009093BF008093BE00D3
S11307B08130910549F482EA90E00E9423039093EA
S11307C0C1008093C00029C08230910549F484E9B6
S11307D090E00E9423039093C1008093C0001DC049
S11307E00397D9F486E890E00E9423039093C10014
S11307F08093C00012C01092CB001092CA000DC0AA
S11308004091C0005091C100BE018091BE00909102
S1130810BF000E9445020E941302FF91EF91DF91F5
S1130820CF91BF91AF919F918F917F916F915F9184
S11308304F913F912F910F900FBE0F901F901895DD
S11308401F920F920FB60F9211242F933F934F9341
S11308505F936F937F938F939F93AF93BF93EF9324
S1130860FF938091C6009091C7000297ECF08091AD
S1130870C2009091C300892B61F00E9436028091DE
S1130880C6009091C70002979093C7008093C6005A
S11308900BC00E9425028091C6009091C700019769
S11308A09093C7008093C600FF91EF91BF91AF91E1
S11308B09F918F917F916F915F914F913F912F9174
S11308C00F900FBE0F901F9018951F920F920FB6A6
S11308D00F9211242F933F934F935F936F937F93C2
S11308E08F939F93AF93BF93EF93FF938091C60031
S11308F09091C7000397ECF48091C2009091C300DB
S1130900892B61F00E9436028091C6009091C70045
S113091002969093C7008093C6000BC00E942502E4
S11309208091C6009091C70001969093C700809370
S1130930C600FF91EF91BF91AF919F918F917F91ED
S11309406F915F914F913F912F910F900FBE0F9038
S11309501F9018958F929F92AF92BF92CF92DF9281
S1130960EF92FF920F931F93CF93DF936C017B0160
S11309704A0159010E94C400EC01C7010E94C4004D
S11309808C01CF3F8FEFD80751F4B801C6010E9404
S1130990A700A801B401C5010E9445022CC00F3F65
S11309A08FEF180751F4BE01C7010E94A700AE01E2
S11309B0B501C4010E9445021EC00C171D0774F442
S11309C0BE01C6010E94A700B801C6010E94A7008B
S11309D0A801B401C5010E9445020DC0B801C701B8
S11309E00E94A700BE01C7010E94A700AE01B50185
S11309F0C4010E944502DF91CF911F910F91FF9096
S1130A00EF90DF90CF90BF90AF909F908F9008951C
S1130A104F925F926F927F928F929F92AF92BF920A
S1130A20CF92DF92EF92FF920F931F93CF93DF93B6
S1130A30EC017B014A01590180FD0AC00F2EF3E04D
S1130A404F2E512CF02D6894662461F8712C09C046
S1130A506894442441F8512C0F2EF3E06F2E712C2E
S1130A60F02DBE010D2E000C880B990B0E94F4068C
S1130A709B01AC0160E070E080E090E40E9480079C
S1130A8020E030E040E85FE30E944F060E94BC068D
S1130A908B011C161D0634F4BE01C7010E94A70079
S1130AA02197D1F7101611067CF5C1E0D0E00F2E86
S1130AB0F3E0CF2ED12CF02D0E941302CE01B6010B
S1130AC00E94E4098130910541F4930141E050E032
S1130AD0B501C7010E94AA0413C08230910541F4F4
S1130AE0920141E050E0B401C7010E94AA0408C089
S1130AF0892B31F49301A201B501C4010E94AA0417
S1130B0021960C171D07C4F60E941302A0916800D9
S1130B10B0916900FD01EC56FF4F808181508083C4
S1130B20E0916600F0916700EF01CC56DF4F8881B9
S1130B3081508883AA57BF4F8C918F5F8C93EA575B
S1130B40FF4F80818F5F80830E941302DF91CF91DA
S1130B501F910F91FF90EF90DF90CF90BF90AF90D7
S1130B609F908F907F906F905F904F900895909199
S1130B70B00080918600981310C0E1EBF0E0A7E884
S1130B80B0E02EEB30E091918D91981309C0E217FB
S1130B90F307C9F781E090E0089580E090E00895BC
S1130BA080E090E008958FEF8ABB9BEF97BB93EFB3
S1130BB091BB90E894BF94BF84BB86E090E00E9410
S1130BC08A0086E090E00E948A0086E090E00E941D
S1130BD08A008BB780648BBF8BB780688BBF8BB761
S1130BE080628BBF84B7806484BF8FE085BF81E05F
S1130BF090E09093C7008093C6007894C1E0D0E061
S1130C00D093C300C093C2000E94C6010E94EA01AF
S1130C108091C8009091C9008130910519F5109216
S1130C20C7001092C60086E090E00E948A008C0102
S1130C3086E090E00E948A007C0186E090E00E94B9
S1130C408A006C010E94DF009601A701B80186E0CA
S1130C5090E00E9408050E941302D093C700C0933D
S1130C60C60018C00196B1F40E94DF00D093C700FB
S1130C70C093C6000E94F9000E9430010E948401C2
S1130C800E94B705892BB1F30E941302D093C700C9
S1130C90C093C6001092C9001092C800B1CF50583A
S1130CA0BB27AA270E9467060C9446070E943807B0
S1130CB038F00E943F0720F039F49F3F19F426F4DE
S1130CC00C9435070EF4E095E7FB0C942F07E92FFD
S1130CD00E94570758F3BA176207730784079507EA
S1130CE020F079F4A6F50C9479070EF4E0950B2E18
S1130CF0BA2FA02D0B01B90190010C01CA01A0016A
S1130D001124FF27591B99F0593F50F4503E68F1C4
S1130D101A16F040A22F232F342F4427585FF3CF05
S1130D20469537952795A795F0405395C9F77EF4D6
S1130D301F16BA0B620B730B840BBAF09150A1F01F
S1130D40FF0FBB1F661F771F881FC2F70EC0BA0FA5
S1130D50621F731F841F48F4879577956795B7952D
S1130D60F7959E3F08F0B0CF9395880F08F0992728
S1130D70EE0F9795879508950E94C3066894B11164
S1130D800C947A0708950E945F0788F09F5798F0A3
S1130D90B92F9927B751B0F0E1F0660F771F881F7C
S1130DA0991F1AF0BA95C9F714C0B13091F00E9496
S1130DB07907B1E008950C947907672F782F882775
S1130DC0B85F39F0B93FCCF3869577956795B395BD
S1130DD0D9F73EF490958095709561957F4F8F4F2C
S1130DE09F4F0895E89409C097FB3EF49095809531
S1130DF0709561957F4F8F4F9F4F9923A9F0F92FDD
S1130E0096E9BB279395F695879577956795B7955A
S1130E10F111F8CFFAF4BB0F11F460FF1BC06F5F40
S1130E207F4F8F4F9F4F16C0882311F096E911C052
S1130E30772321F09EE8872F762F05C0662371F073
S1130E4096E8862F70E060E02AF09A95660F771F87
S1130E50881FDAF7880F9695879597F9089597F97B
S1130E609F6780E870E060E008959FEF80EC08954C
S1130E7000240A9416161706180609060895002475
S1130E800A9412161306140605060895092E0394EF
S1130E90000C11F4882352F0BB0F40F4BF2B11F463
S1130EA060FF04C06F5F7F4F8F4F9F4F089557FDC2
S1130EB09058440F551F59F05F3F71F04795880FC4
S1130EC097FB991F61F09F3F79F08795089512165B
S1130ED013061406551FF2CF4695F1DF08C0161607
S1130EE017061806991FF1CF8695710561050894B8
S1130EF00895E894BB2766277727CB0197F90895CF
S1130F00FA01EE0FFF1F309621053105A1F161159D
S1130F10710561F48038BFE39B0749F16894903808
S1130F20810561F08038BFEF9B0741F099234AF5B2
S1130F30FF3FE1053105210519F1E8940894E7958F
S1130F40D901AA2329F4AB2FBE2FF85FD0F310C028
S1130F50FF5F70F4A695E0F7F73950F019F0FF3A07
S1130F6038F49F779F930DD00F9007FC9058089505
S1130F7046F00C94350760E070E080E89FE3089544
S1130F804FE79F775F934F933F932F930E947B0884
S1130F902F913F914F915F910E94F7080C94D807CD
S1130FA029F416F00C942F070C9479070C94350748
S1130FB00E945F07A8F39638A0F707F80F92E89409
S1130FC02BE33AEA48EB5FE70E940D090F920F9278
S1130FD00F924DB75EB70F920E94C308E4E5F0E0AC
S1130FE00E940A084F915F91EF91FF91E595EE1FE2
S1130FF0FF1F49F0FE57E0684427EE0F441FFA959F
S1131000E1F74195550B0E943D080F9007FE0C94A3
S113101031080895DF93CF931F930F93FF92EF92BC
S1131020DF927B018C01689406C0DA2EEF010E94E6
S11310300A09FE01E894A5912591359145915591B0
S1131040A6F3EF010E946706FE019701A801DA9456
S113105069F7DF90EF90FF900F911F91CF91DF918F
S113106008959B01AC0160E070E080E89FE30C947C
S113107064090C942F070C94D6090E945F07D8F3D7
S11310809923C9F3940F511DA3F39150504094F048
S113109059F0882332F0660F771F881F9150504013
S11310A0C1F79E3F51052CF7880F911D96958795A2
S11310B097F908955F3FACF0983E9CF0BB27869566
S11310C077956795B79508F4B1609395C1F7BB0F11
S11310D058F711F460FFE8CF6F5F7F4F8F4F9F4F3A
S11310E0E3CF0C947A0716F00C94D6090C943507C8
S11310F068940C942F070E945F07A8F39923C1F307
S1131100AEF3DF93CF931F930F93FF92C92FDD2785
S113111088232AF02197660F771F881FDAF720E0CB
S113112030E040E85FEB9FE3883920F0803E38F000
S113113021968F770E945006ECE7F0E004C00E94ED
S11311405006E9EAF0E00E940A088B01BE01EC01B6
S1131150FB2E6F5771097595771F880B990B0E94A9
S1131160F40628E132E741E35FE30E940A09AF2D68
S11311709801AE01FF900F911F91CF91DF910E94D2
S113118067060C944607FA01DC01AA0FBB1F9B01FA
S1131190AC01BF5728F4222733274427507820C0B6
S11311A0B75190F4AB2F0024469537952795011C31
S11311B0A395D2F3002071F0220F331F441FB3957F
S11311C0DAF30ED00C944F0661307105A0E88A075B
S11311D0B94630F49B01AC016627772788279078BD
S11311E0309621F0208331834283538308950E94F3
S11311F00A090C9446070E94380738F00E943F07FA
S113120020F0952311F00C942F070C94350711242A
S11312100C947A070E94570770F3959FC1F3950FBA
S113122050E0551F629FF001729FBB27F00DB11D66
S1131230639FAA27F00DB11DAA1F649F6627B00DF6
S1131240A11D661F829F2227B00DA11D621F739FDF
S1131250B00DA11D621F839FA00D611D221F749FED
S11312603327A00D611D231F849F600D211D822F34
S1131270762F6A2F11249F5750409AF0F1F088235B
S11312804AF0EE0FFF1FBB1F661F771F881F915088
S11312905040A9F79E3F510580F00C942F070C9401
S11312A07A075F3FE4F3983ED4F386957795679584
S11312B0B795F795E7959F5FC1F7FE2B880F911DB2
S11312C09695879597F908950E9478090C94460796
S11312D00E943F0758F00E94380740F029F45F3F0E
S11312E029F00C942F0751110C947A070C943507AC
S11312F00E94570768F39923B1F3552391F3951B83
S1131300550BBB27AA2762177307840738F09F5F22
S11313105F4F220F331F441FAA1FA9F335D00E2E8F
S11313203AF0E0E832D091505040E695001CCAF7FC
S11313302BD0FE2F29D0660F771F881FBB1F2617BF
S113134037074807AB07B0E809F0BB0B802DBF0196
S1131350FF2793585F4F3AF09E3F510578F00C9465
S11313602F070C947A075F3FE4F3983ED4F38695F5
S113137077956795B795F7959F5FC9F7880F911D86
S11313809695879597F90895E1E0660F771F881F72
S1131390BB1F621773078407BA0720F0621B730B25
S11313A0840BBA0BEE1F88F7E09508959F3F31F048
S11313B0915020F4879577956795B795880F911D7F
S11313C09695879597F9089597FB072E16F4009440
S11313D007D077FD09D00E94F80907FC05D03EF438
S11313E0909581959F4F0895709561957F4F0895CD
S11313F0AA1BBB1B51E107C0AA1FBB1FA617B70737
S113140010F0A61BB70B881F991F5A95A9F7809552
S11314109095BC01CD010895CF93DF93823091055F
S113142010F482E090E0E091CE00F091CF0020E053
S113143030E0C0E0D0E0309711F14081518148178D
S11314405907C0F04817590761F4828193812097A6
S113145019F09B838A832BC09093CF008093CE0096
S113146026C02115310519F04217530718F49A01C3
S1131470BE01DF01EF010280F381E02DDCCF2115F5
S1131480310509F1281B390B2430310590F41296EB
S11314908D919C9113976115710521F0FB01938344
S11314A0828304C09093CF008093CE00FD013296D6
S11314B044C0FD01E20FF31F81939193225031093F
S11314C02D933C933AC02091CC003091CD00232B36
S11314D041F420916200309163003093CD00209359
S11314E0CC0020916000309161002115310541F458
S11314F02DB73EB74091640050916500241B350B15
S1131500E091CC00F091CD00E217F307A0F42E1B7C
S11315103F0B2817390778F0AC014E5F5F4F241753
S1131520350748F04E0F5F1F5093CD004093CC0019
S11315308193919302C0E0E0F0E0CF01DF91CF917D
S113154008950F931F93CF93DF93009709F48CC0F2
S1131550FC013297138212820091CE001091CF00C9
S11315600115110581F420813181820F931F20918F
S1131570CC003091CD002817390779F5F093CD00D0
S1131580E093CC0071C0D80140E050E0AE17BF0733
S113159050F412962D913C911397AD01211531050C
S11315A009F1D901F3CF9D01DA01338322836081EC
S11315B07181860F971F8217930769F4EC012881C4
S11315C03981260F371F2E5F3F4F318320838A8155
S11315D09B8193838283452B29F4F093CF00E0937E
S11315E0CE0042C01396FC93EE931297ED014991FD
S11315F059919E01240F351FE217F30771F480817E
S11316009181840F951F029611969C938E938281EB
S1131610938113969C938E931297E0E0F0E0D801A7
S113162012968D919C911397009719F0F8018C01F3
S1131630F6CF8D919C9198012E5F3F4F820F931F9F
S11316402091CC003091CD002817390769F43097E8
S113165029F41092CF001092CE0002C0138212829D
S11316601093CD000093CC00DF91CF911F910F9187
S10916700895F894FFCF79
S11316760000D00020000700060000000000001251
S11316862925120000000000000000001E2121266A
S113169624170000000008000000000000000000FD
S11316A60000000808000000000000000000000020
S11316B600080801020304050606050403020108DE
S11116C60801020304050606050403020108D8
S9030000FC
